{
  "_format": "hh-sol-artifact-1",
  "contractName": "CarbonCredit",
  "sourceName": "contracts/CarbonCredit.sol",
  "abi": [
    {
      "inputs": [],
      "stateMutability": "nonpayable",
      "type": "constructor"
    },
    {
      "anonymous": false,
      "inputs": [
        {
          "indexed": true,
          "internalType": "address",
          "name": "farmer",
          "type": "address"
        },
        {
          "indexed": false,
          "internalType": "uint256",
          "name": "projectId",
          "type": "uint256"
        },
        {
          "indexed": false,
          "internalType": "uint256",
          "name": "amount",
          "type": "uint256"
        }
      ],
      "name": "CreditsGenerated",
      "type": "event"
    },
    {
      "anonymous": false,
      "inputs": [
        {
          "indexed": true,
          "internalType": "address",
          "name": "holder",
          "type": "address"
        },
        {
          "indexed": false,
          "internalType": "uint256",
          "name": "projectId",
          "type": "uint256"
        },
        {
          "indexed": false,
          "internalType": "uint256",
          "name": "amount",
          "type": "uint256"
        }
      ],
      "name": "CreditsRetired",
      "type": "event"
    },
    {
      "anonymous": false,
      "inputs": [
        {
          "indexed": true,
          "internalType": "address",
          "name": "holder",
          "type": "address"
        },
        {
          "indexed": false,
          "internalType": "bool",
          "name": "suspended",
          "type": "bool"
        }
      ],
      "name": "CreditsSuspended",
      "type": "event"
    },
    {
      "anonymous": false,
      "inputs": [
        {
          "indexed": true,
          "internalType": "address",
          "name": "from",
          "type": "address"
        },
        {
          "indexed": true,
          "internalType": "address",
          "name": "to",
          "type": "address"
        },
        {
          "indexed": false,
          "internalType": "uint256",
          "name": "projectId",
          "type": "uint256"
        },
        {
          "indexed": false,
          "internalType": "uint256",
          "name": "amount",
          "type": "uint256"
        }
      ],
      "name": "CreditsTransferred",
      "type": "event"
    },
    {
      "anonymous": false,
      "inputs": [
        {
          "indexed": false,
          "internalType": "uint256",
          "name": "projectId",
          "type": "uint256"
        }
      ],
      "name": "ProjectAdded",
      "type": "event"
    },
    {
      "inputs": [
        {
          "internalType": "address",
          "name": "",
          "type": "address"
        }
      ],
      "name": "accounts",
      "outputs": [
        {
          "internalType": "uint256",
          "name": "totalBalance",
          "type": "uint256"
        },
        {
          "internalType": "bool",
          "name": "suspended",
          "type": "bool"
        }
      ],
      "stateMutability": "view",
      "type": "function"
    },
    {
      "inputs": [
        {
          "internalType": "uint256",
          "name": "projectId",
          "type": "uint256"
        }
      ],
      "name": "addProject",
      "outputs": [],
      "stateMutability": "nonpayable",
      "type": "function"
    },
    {
      "inputs": [],
      "name": "admin",
      "outputs": [
        {
          "internalType": "address",
          "name": "",
          "type": "address"
        }
      ],
      "stateMutability": "view",
      "type": "function"
    },
    {
      "inputs": [
        {
          "internalType": "address",
          "name": "farmer",
          "type": "address"
        },
        {
          "internalType": "uint256",
          "name": "projectId",
          "type": "uint256"
        },
        {
          "internalType": "uint256",
          "name": "amount",
          "type": "uint256"
        }
      ],
      "name": "generateCredits",
      "outputs": [],
      "stateMutability": "nonpayable",
      "type": "function"
    },
    {
      "inputs": [
        {
          "internalType": "address",
          "name": "holder",
          "type": "address"
        },
        {
          "internalType": "uint256",
          "name": "projectId",
          "type": "uint256"
        }
      ],
      "name": "getCreditsByProject",
      "outputs": [
        {
          "internalType": "uint256",
          "name": "",
          "type": "uint256"
        }
      ],
      "stateMutability": "view",
      "type": "function"
    },
    {
      "inputs": [
        {
          "internalType": "uint256",
          "name": "projectId",
          "type": "uint256"
        }
      ],
      "name": "getProjectCredits",
      "outputs": [
        {
          "internalType": "uint256",
          "name": "issued",
          "type": "uint256"
        },
        {
          "internalType": "uint256",
          "name": "retired",
          "type": "uint256"
        }
      ],
      "stateMutability": "view",
      "type": "function"
    },
    {
      "inputs": [
        {
          "internalType": "address",
          "name": "holder",
          "type": "address"
        }
      ],
      "name": "getTotalCredits",
      "outputs": [
        {
          "internalType": "uint256",
          "name": "",
          "type": "uint256"
        }
      ],
      "stateMutability": "view",
      "type": "function"
    },
    {
      "inputs": [
        {
          "internalType": "uint256",
          "name": "projectId",
          "type": "uint256"
        }
      ],
      "name": "isProjectValid",
      "outputs": [
        {
          "internalType": "bool",
          "name": "",
          "type": "bool"
        }
      ],
      "stateMutability": "view",
      "type": "function"
    },
    {
      "inputs": [
        {
          "internalType": "address",
          "name": "holder",
          "type": "address"
        }
      ],
      "name": "isSuspended",
      "outputs": [
        {
          "internalType": "bool",
          "name": "",
          "type": "bool"
        }
      ],
      "stateMutability": "view",
      "type": "function"
    },
    {
      "inputs": [
        {
          "internalType": "uint256",
          "name": "",
          "type": "uint256"
        }
      ],
      "name": "projects",
      "outputs": [
        {
          "internalType": "uint256",
          "name": "totalIssued",
          "type": "uint256"
        },
        {
          "internalType": "uint256",
          "name": "totalRetired",
          "type": "uint256"
        }
      ],
      "stateMutability": "view",
      "type": "function"
    },
    {
      "inputs": [
        {
          "internalType": "uint256",
          "name": "projectId",
          "type": "uint256"
        },
        {
          "internalType": "uint256",
          "name": "amount",
          "type": "uint256"
        }
      ],
      "name": "retireCredits",
      "outputs": [],
      "stateMutability": "nonpayable",
      "type": "function"
    },
    {
      "inputs": [
        {
          "internalType": "address",
          "name": "holder",
          "type": "address"
        },
        {
          "internalType": "bool",
          "name": "suspend",
          "type": "bool"
        }
      ],
      "name": "suspendCredits",
      "outputs": [],
      "stateMutability": "nonpayable",
      "type": "function"
    },
    {
      "inputs": [
        {
          "internalType": "address",
          "name": "to",
          "type": "address"
        },
        {
          "internalType": "uint256",
          "name": "projectId",
          "type": "uint256"
        },
        {
          "internalType": "uint256",
          "name": "amount",
          "type": "uint256"
        }
      ],
      "name": "transferCredits",
      "outputs": [],
      "stateMutability": "nonpayable",
      "type": "function"
    },
    {
      "inputs": [
        {
          "internalType": "address",
          "name": "",
          "type": "address"
        },
        {
          "internalType": "uint256",
          "name": "",
          "type": "uint256"
        }
      ],
      "name": "userProjectBalance",
      "outputs": [
        {
          "internalType": "uint256",
          "name": "",
          "type": "uint256"
        }
      ],
      "stateMutability": "view",
      "type": "function"
    },
    {
      "inputs": [
        {
          "internalType": "uint256",
          "name": "",
          "type": "uint256"
        }
      ],
      "name": "validProjects",
      "outputs": [
        {
          "internalType": "bool",
          "name": "",
          "type": "bool"
        }
      ],
      "stateMutability": "view",
      "type": "function"
    }
  ],
  "bytecode": "0x6080604052348015600f57600080fd5b50336000806101000a81548173ffffffffffffffffffffffffffffffffffffffff021916908373ffffffffffffffffffffffffffffffffffffffff1602179055506118578061005f6000396000f3fe608060405234801561001057600080fd5b50600436106100f55760003560e01c80635718369811610097578063a2f6045a11610066578063a2f6045a146102bd578063b774d5cc146102d9578063e12b004814610309578063f851a44014610339576100f5565b8063571836981461020f5780635e5c06e21461022b5780638ec357341461025c578063a17248781461028c576100f5565b80633da040ac116100d35780633da040ac1461018b5780633ea0fb13146101a757806342ddfc34146101c357806356c31f5a146101df576100f5565b8063107046bd146100fa578063189ec0561461012b578063232e0e9a1461015b575b600080fd5b610114600480360381019061010f919061121e565b610357565b60405161012292919061125a565b60405180910390f35b610145600480360381019061014091906112e1565b61037b565b6040516101529190611321565b60405180910390f35b6101756004803603810190610170919061133c565b6103a0565b6040516101829190611384565b60405180910390f35b6101a560048036038101906101a0919061139f565b6103f9565b005b6101c160048036038101906101bc91906113f2565b61066e565b005b6101dd60048036038101906101d8919061145e565b610979565b005b6101f960048036038101906101f4919061133c565b610ab3565b6040516102069190611321565b60405180910390f35b6102296004803603810190610224919061121e565b610aff565b005b6102456004803603810190610240919061133c565b610c54565b60405161025392919061149e565b60405180910390f35b6102766004803603810190610271919061121e565b610c85565b6040516102839190611384565b60405180910390f35b6102a660048036038101906102a1919061121e565b610caf565b6040516102b492919061125a565b60405180910390f35b6102d760048036038101906102d2919061139f565b610cfc565b005b6102f360048036038101906102ee919061121e565b611144565b6040516103009190611384565b60405180910390f35b610323600480360381019061031e91906112e1565b611164565b6040516103309190611321565b60405180910390f35b6103416111bf565b60405161034e91906114d6565b60405180910390f35b60026020528060005260406000206000915090508060000154908060010154905082565b6004602052816000526040600020602052806000526040600020600091509150505481565b6000600160008373ffffffffffffffffffffffffffffffffffffffff1673ffffffffffffffffffffffffffffffffffffffff16815260200190815260200160002060010160009054906101000a900460ff169050919050565b60008054906101000a900473ffffffffffffffffffffffffffffffffffffffff1673ffffffffffffffffffffffffffffffffffffffff163373ffffffffffffffffffffffffffffffffffffffff1614610487576040517f08c379a000000000000000000000000000000000000000000000000000000000815260040161047e9061154e565b60405180910390fd5b816003600082815260200190815260200160002060009054906101000a900460ff166104e8576040517f08c379a00000000000000000000000000000000000000000000000000000000081526004016104df906115ba565b60405180910390fd5b6000821161052b576040517f08c379a000000000000000000000000000000000000000000000000000000000815260040161052290611626565b60405180910390fd5b81600160008673ffffffffffffffffffffffffffffffffffffffff1673ffffffffffffffffffffffffffffffffffffffff168152602001908152602001600020600001600082825461057d9190611675565b9250508190555081600460008673ffffffffffffffffffffffffffffffffffffffff1673ffffffffffffffffffffffffffffffffffffffff168152602001908152602001600020600085815260200190815260200160002060008282546105e49190611675565b92505081905550816002600085815260200190815260200160002060000160008282546106119190611675565b925050819055508373ffffffffffffffffffffffffffffffffffffffff167f5f2049c7785373bba555bccd5c3dcca3fe69b716c07d1767e7693f9be09fef18848460405161066092919061125a565b60405180910390a250505050565b33600160008273ffffffffffffffffffffffffffffffffffffffff1673ffffffffffffffffffffffffffffffffffffffff16815260200190815260200160002060010160009054906101000a900460ff16156106ff576040517f08c379a00000000000000000000000000000000000000000000000000000000081526004016106f6906116f5565b60405180910390fd5b826003600082815260200190815260200160002060009054906101000a900460ff16610760576040517f08c379a0000000000000000000000000000000000000000000000000000000008152600401610757906115ba565b60405180910390fd5b600083116107a3576040517f08c379a000000000000000000000000000000000000000000000000000000000815260040161079a90611626565b60405180910390fd5b82600460003373ffffffffffffffffffffffffffffffffffffffff1673ffffffffffffffffffffffffffffffffffffffff1681526020019081526020016000206000868152602001908152602001600020541015610836576040517f08c379a000000000000000000000000000000000000000000000000000000000815260040161082d90611761565b60405180910390fd5b82600460003373ffffffffffffffffffffffffffffffffffffffff1673ffffffffffffffffffffffffffffffffffffffff168152602001908152602001600020600086815260200190815260200160002060008282546108969190611781565b9250508190555082600160003373ffffffffffffffffffffffffffffffffffffffff1673ffffffffffffffffffffffffffffffffffffffff16815260200190815260200160002060000160008282546108ef9190611781565b925050819055508260026000868152602001908152602001600020600101600082825461091c9190611675565b925050819055503373ffffffffffffffffffffffffffffffffffffffff167f2ffd4879af328c871cf4d2be1d40d91f5ce4f202fd47e10e4c58d19667627da8858560405161096b92919061125a565b60405180910390a250505050565b60008054906101000a900473ffffffffffffffffffffffffffffffffffffffff1673ffffffffffffffffffffffffffffffffffffffff163373ffffffffffffffffffffffffffffffffffffffff1614610a07576040517f08c379a00000000000000000000000000000000000000000000000000000000081526004016109fe9061154e565b60405180910390fd5b80600160008473ffffffffffffffffffffffffffffffffffffffff1673ffffffffffffffffffffffffffffffffffffffff16815260200190815260200160002060010160006101000a81548160ff0219169083151502179055508173ffffffffffffffffffffffffffffffffffffffff167f2833733200e341810dfe452cbe6a7c4749b44de6d0b0059b079288a7761ccee782604051610aa79190611384565b60405180910390a25050565b6000600160008373ffffffffffffffffffffffffffffffffffffffff1673ffffffffffffffffffffffffffffffffffffffff168152602001908152602001600020600001549050919050565b60008054906101000a900473ffffffffffffffffffffffffffffffffffffffff1673ffffffffffffffffffffffffffffffffffffffff163373ffffffffffffffffffffffffffffffffffffffff1614610b8d576040517f08c379a0000000000000000000000000000000000000000000000000000000008152600401610b849061154e565b60405180910390fd5b6003600082815260200190815260200160002060009054906101000a900460ff1615610bee576040517f08c379a0000000000000000000000000000000000000000000000000000000008152600401610be590611801565b60405180910390fd5b60016003600083815260200190815260200160002060006101000a81548160ff0219169083151502179055507f7048f4116e78f3e5e51282b26fe38719c961b8ca5b63fb602278562ca629a14b81604051610c499190611321565b60405180910390a150565b60016020528060005260406000206000915090508060000154908060010160009054906101000a900460ff16905082565b60006003600083815260200190815260200160002060009054906101000a900460ff169050919050565b600080600060026000858152602001908152602001600020604051806040016040529081600082015481526020016001820154815250509050806000015181602001519250925050915091565b33600160008273ffffffffffffffffffffffffffffffffffffffff1673ffffffffffffffffffffffffffffffffffffffff16815260200190815260200160002060010160009054906101000a900460ff1615610d8d576040517f08c379a0000000000000000000000000000000000000000000000000000000008152600401610d84906116f5565b60405180910390fd5b83600160008273ffffffffffffffffffffffffffffffffffffffff1673ffffffffffffffffffffffffffffffffffffffff16815260200190815260200160002060010160009054906101000a900460ff1615610e1e576040517f08c379a0000000000000000000000000000000000000000000000000000000008152600401610e15906116f5565b60405180910390fd5b836003600082815260200190815260200160002060009054906101000a900460ff16610e7f576040517f08c379a0000000000000000000000000000000000000000000000000000000008152600401610e76906115ba565b60405180910390fd5b60008411610ec2576040517f08c379a0000000000000000000000000000000000000000000000000000000008152600401610eb990611626565b60405180910390fd5b83600460003373ffffffffffffffffffffffffffffffffffffffff1673ffffffffffffffffffffffffffffffffffffffff1681526020019081526020016000206000878152602001908152602001600020541015610f55576040517f08c379a0000000000000000000000000000000000000000000000000000000008152600401610f4c90611761565b60405180910390fd5b83600460003373ffffffffffffffffffffffffffffffffffffffff1673ffffffffffffffffffffffffffffffffffffffff16815260200190815260200160002060008781526020019081526020016000206000828254610fb59190611781565b9250508190555083600460008873ffffffffffffffffffffffffffffffffffffffff1673ffffffffffffffffffffffffffffffffffffffff1681526020019081526020016000206000878152602001908152602001600020600082825461101c9190611675565b9250508190555083600160003373ffffffffffffffffffffffffffffffffffffffff1673ffffffffffffffffffffffffffffffffffffffff16815260200190815260200160002060000160008282546110759190611781565b9250508190555083600160008873ffffffffffffffffffffffffffffffffffffffff1673ffffffffffffffffffffffffffffffffffffffff16815260200190815260200160002060000160008282546110ce9190611675565b925050819055508573ffffffffffffffffffffffffffffffffffffffff163373ffffffffffffffffffffffffffffffffffffffff167ffc155943a4837f932d2628406ce5e8f3f42dd6ab031108a2fcec0c68d94005ee878760405161113492919061125a565b60405180910390a3505050505050565b60036020528060005260406000206000915054906101000a900460ff1681565b6000600460008473ffffffffffffffffffffffffffffffffffffffff1673ffffffffffffffffffffffffffffffffffffffff168152602001908152602001600020600083815260200190815260200160002054905092915050565b60008054906101000a900473ffffffffffffffffffffffffffffffffffffffff1681565b600080fd5b6000819050919050565b6111fb816111e8565b811461120657600080fd5b50565b600081359050611218816111f2565b92915050565b600060208284031215611234576112336111e3565b5b600061124284828501611209565b91505092915050565b611254816111e8565b82525050565b600060408201905061126f600083018561124b565b61127c602083018461124b565b9392505050565b600073ffffffffffffffffffffffffffffffffffffffff82169050919050565b60006112ae82611283565b9050919050565b6112be816112a3565b81146112c957600080fd5b50565b6000813590506112db816112b5565b92915050565b600080604083850312156112f8576112f76111e3565b5b6000611306858286016112cc565b925050602061131785828601611209565b9150509250929050565b6000602082019050611336600083018461124b565b92915050565b600060208284031215611352576113516111e3565b5b6000611360848285016112cc565b91505092915050565b60008115159050919050565b61137e81611369565b82525050565b60006020820190506113996000830184611375565b92915050565b6000806000606084860312156113b8576113b76111e3565b5b60006113c6868287016112cc565b93505060206113d786828701611209565b92505060406113e886828701611209565b9150509250925092565b60008060408385031215611409576114086111e3565b5b600061141785828601611209565b925050602061142885828601611209565b9150509250929050565b61143b81611369565b811461144657600080fd5b50565b60008135905061145881611432565b92915050565b60008060408385031215611475576114746111e3565b5b6000611483858286016112cc565b925050602061149485828601611449565b9150509250929050565b60006040820190506114b3600083018561124b565b6114c06020830184611375565b9392505050565b6114d0816112a3565b82525050565b60006020820190506114eb60008301846114c7565b92915050565b600082825260208201905092915050565b7f4f6e6c792061646d696e00000000000000000000000000000000000000000000600082015250565b6000611538600a836114f1565b915061154382611502565b602082019050919050565b600060208201905081810360008301526115678161152b565b9050919050565b7f496e76616c69642070726f6a6563740000000000000000000000000000000000600082015250565b60006115a4600f836114f1565b91506115af8261156e565b602082019050919050565b600060208201905081810360008301526115d381611597565b9050919050565b7f416d6f756e74206d75737420626520706f736974697665000000000000000000600082015250565b60006116106017836114f1565b915061161b826115da565b602082019050919050565b6000602082019050818103600083015261163f81611603565b9050919050565b7f4e487b7100000000000000000000000000000000000000000000000000000000600052601160045260246000fd5b6000611680826111e8565b915061168b836111e8565b92508282019050808211156116a3576116a2611646565b5b92915050565b7f4163636f756e742073757370656e646564000000000000000000000000000000600082015250565b60006116df6011836114f1565b91506116ea826116a9565b602082019050919050565b6000602082019050818103600083015261170e816116d2565b9050919050565b7f496e73756666696369656e742063726564697473000000000000000000000000600082015250565b600061174b6014836114f1565b915061175682611715565b602082019050919050565b6000602082019050818103600083015261177a8161173e565b9050919050565b600061178c826111e8565b9150611797836111e8565b92508282039050818111156117af576117ae611646565b5b92915050565b7f50726f6a65637420616c72656164792065786973747300000000000000000000600082015250565b60006117eb6016836114f1565b91506117f6826117b5565b602082019050919050565b6000602082019050818103600083015261181a816117de565b905091905056fea264697066735822122082f172b81517c2dcdc92be20befc532bcccbc0655eb95398b80b36870f68249364736f6c634300081c0033",
  "linkReferences": {},
  "deployedLinkReferences": {}
}